:020000040800F2
:10000000900A0020490100089F0300089703000898
:100010009B0300087B0200089B0C00080000000006
:10002000000000000000000000000000890500083A
:100030007F02000800000000310400087506000877
:100040006301000863010008630100086301000800
:1000500063010008630100086301000863010008F0
:1000600063010008630100086301000863010008E0
:1000700063010008630100086301000863010008D0
:1000800063010008630100086301000863010008C0
:1000900063010008630100086301000863010008B0
:1000A00063010008630100086301000863010008A0
:1000B0006301000863010008630100086301000890
:1000C0006301000863010008630100086301000880
:1000D00063010008630100082D0A0008630100089D
:1000E0006301000863010008630100086301000860
:1000F0006301000863010008630100086301000850
:10010000630100086301000863010008630100083F
:100110006301000863010008ED06000863010008A0
:10012000630100086301000863010008630100081F
:10013000DFF810D000F070F8004800471D120008EA
:10014000AFF30080900A0020064880470648004729
:10015000FEE7FEE7FEE7FEE7FEE7FEE7FEE7FEE777
:10016000FEE7FEE78D0600083101000840EA0103C2
:100170009B0703D009E008C9121F08C0042AFAD25D
:1001800003E011F8013B00F8013B521EF9D2704721
:10019000D2B201E000F8012B491EFBD270470022C9
:1001A000F6E710B513460A4604461946FFF7F0FF76
:1001B000204610BD2DE9F05F0546002092469B4683
:1001C00088460646814640241BE02846414647466D
:1001D000224600F042F853465A46C01A914110D3C5
:1001E00011461846224600F029F82D1A67EB01083F
:1001F0004F4622460120002100F020F817EB0009AD
:100200004E41201EA4F10104DFDC484631462A4657
:100210004346BDE8F09F0000064C074D06E0E0684D
:1002200040F0010394E8070098471034AC42F6D33D
:10023000FFF782FFA01C0008C01C0008202A04DB76
:10024000203A00FA02F1002070479140C2F12003E9
:1002500020FA03F3194390407047202A04DB203A28
:1002600021FA02F00021704721FA02F3D040C2F1D6
:100270002002914008431946704700BFFEE77047CF
:100280002DE9F0410246002500260020002300242D
:10029000002791F803C00CF00F0591F803C00CF093
:1002A000100CBCF1000F03D091F802C04CEA050518
:1002B00091F800C0BCF1000F31D0146800202BE091
:1002C0004FF0010C0CFA00F3B1F800C00CEA030681
:1002D0009E4220D183004FF00F0C0CFA03F7BC4371
:1002E00005FA03FC4CEA040491F803C0BCF1280FA2
:1002F00006D14FF0010C0CFA00FCC2F814C00AE061
:1003000091F803C0BCF1480F05D14FF0010C0CFA75
:1003100000FCC2F810C0401C0828D1D31460B1F80A
:1003200000C0BCF1FF0F34DD546800202EE000F166
:10033000080C4FF0010808FA0CF3B1F800C00CEA01
:1003400003069E4221D183004FF00F0C0CFA03F7F5
:10035000BC4305FA03FC4CEA040491F803C0BCF169
:10036000280F05D100F1080C08FA0CF8C2F8148027
:1003700091F803C0BCF1480F07D100F1080C4FF011
:10038000010808FA0CF8C2F81080401C0828CED3E7
:100390005460BDE8F08100BFFEE700BFFEE7704794
:1003A00010B54FF4E06000F039F810BD70B50021D1
:1003B00000230F22C47804B3154C246804F4E064CD
:1003C000C4F5E064210AC1F10403CA40447804FA88
:1003D00003F184781440214309010E4C0678A1559D
:1003E000047804F01F050124AC4005786D11AD00C0
:1003F00005F1E025C5F8004109E0047804F01F0587
:100400000124AC40044D0678761145F8264070BDB5
:100410000CED00E000E400E080E100E0024901436F
:10042000024A1160704700000000FA050CED00E080
:100430007047000029B1064AD2690243044BDA61D1
:1004400004E0034AD2698243014BDA61704700003D
:100450000010024029B1064A12690243044B1A6196
:1004600004E0034A12698243014B1A61704700009D
:100470000010024029B1064A92690243044B9A6176
:1004800004E0034A92698243014B9A61704700007D
:100490000010024029B1064AD2680243044BDA60D8
:1004A00004E0034AD2688243014BDA6070470000DF
:1004B0000010024030B500210022002400232D4D01
:1004C0006D6805F00C0121B1042905D0082923D15C
:1004D00005E0294D056022E0274D05601FE0254D10
:1004E0006D6805F47012234D6D6805F480340225A3
:1004F00005EB92421CB9214D554305600BE01D4DA3
:100500006D6805F400351DB11C4D5543056002E0D2
:10051000194D5543056002E0174D056000BF00BF4F
:10052000144D6D6805F0F0010909154D6B5C056807
:10053000DD4045600F4D6D6805F4E061090A104D1E
:100540006B5C4568DD4085600A4D6D6805F460515F
:10055000C90A0B4D6B5C4568DD40C560054D6D6893
:1005600005F44041890B074D6B5CC568B5FBF3F59D
:10057000056130BD0010024000127A0000093D0004
:100580002800002038000020704710B500F002F865
:1005900010BD00000CB500200190009033480068A9
:1005A00040F480303149086000BF3048006800F4F2
:1005B000003000900198401C0190009818B90198F3
:1005C000B0F5A06FF1D12948006800F4003010B1F7
:1005D0000120009001E0002000900098012843D104
:1005E0002348006840F01000214908600846006870
:1005F00020F0070008600846006840F0020008602C
:100600001A484068194948600846406848600846EA
:10061000406840F4806048600846406820F47C10E0
:1006200048600846406840F4E810486008460068A2
:1006300040F08070086000BF0C48006800F0007057
:100640000028F9D00948406820F0030007494860B5
:100650000846406840F00200486000BF0348406818
:1006600000F00C000828F9D10CBD00000010024079
:10067000002002400448006820B103480068401E82
:1006800001490860704700002400002010B513489D
:10069000006840F0010011490860084640681049B0
:1006A00008400E494860084600680E4908400B495A
:1006B00008600846006820F480200860084640680A
:1006C00020F4FE0048604FF41F008860FFF75DFFD4
:1006D0004FF000600449086010BD000000100240A7
:1006E0000000FFF8FFFFF6FE08ED00E010B5012165
:1006F000134800F02FF908B30121114800F027F842
:10070000002240F225510F4800F02CFA002240F25E
:1007100024410C4800F026FA40F22551094800F027
:10072000CFF9084800F0B0FA40F22441054800F043
:10073000C7F901F05DF9042001F0BAF810BD00001E
:100740000010004000440040CA4302827047CA4380
:100750000282704721B1028842F00102028004E067
:1007600002884FF6FE731A400280704710B50446A7
:100770006848844208D10121C014FFF78BFE002194
:10078000E014FFF787FEC4E0B4F1804F08D10121E7
:100790000846FFF75FFE00210120FFF75BFEB8E08F
:1007A0005D48844208D101210220FFF753FE002159
:1007B0000220FFF74FFEACE05848844208D10121E7
:1007C0000420FFF747FE00210420FFF743FEA0E0CE
:1007D0005348844208D101210820FFF73BFE002145
:1007E0000820FFF737FE94E04E48844208D10121EB
:1007F0001020FFF72FFE00211020FFF72BFE88E0CE
:100800004948844208D101212020FFF723FE00211E
:100810002020FFF71FFE7CE04448844208D10121DC
:100820004014FFF737FE00216014FFF733FE70E03D
:100830003F48844209D10121C804FFF72BFE002163
:100840004FF40020FFF726FE63E03A48844209D1C6
:1008500001210805FFF71EFE00214FF48010FFF76D
:1008600019FE56E03448844209D101214805FFF7BA
:1008700011FE00214FF40010FFF70CFE49E02F4855
:10088000844208D101214020FFF7E4FD00214020EF
:10089000FFF7E0FD3DE02A48844208D10121802095
:1008A000FFF7D8FD00218020FFF7D4FD31E0254877
:1008B000844208D101218015FFF7CCFD0021A0154D
:1008C000FFF7C8FD25E02048844209D10121080432
:1008D000FFF7E0FD00214FF48030FFF7DBFD18E06B
:1008E0001A48844209D101214804FFF7D3FD0021B1
:1008F0004FF40030FFF7CEFD0BE01548844208D1DD
:1009000001218804FFF7C6FD00214FF48020FFF786
:10091000C1FD10BD002C0140000400400008004053
:10092000000C004000100040001400400034014062
:10093000004C0140005001400054014000180040AC
:10094000001C0040002000400040014000440140E5
:100950000048014030B50246002000230024158ADB
:1009600005EA0103958905EA010413B10CB10120E0
:1009700000E0002030BD1AB183890B43838102E07F
:1009800083898B4383817047002202881D4B9842E4
:100990000ED01D4B98420BD0B0F1804F08D01B4BAE
:1009A000984205D01A4B984202D01A4B984204D173
:1009B0004FF68F731A404B881A43174B984207D053
:1009C000164B984204D04FF6FF431A40CB881A4387
:1009D00002808B8883850B8803850A4B98420BD055
:1009E000094B984208D00E4B984205D00D4B9842C7
:1009F00002D00D4B984201D10B7A038601238382EA
:100A000070470000002C0140003401400004004009
:100A100000080040000C004000100040001400409E
:100A200000400140004401400048014010B540F240
:100A30002551204800F06CF8E0B140F225511D48E6
:100A400000F03EF81B4800F01FF9C1B21A480288B6
:100A50000088401C184B188018488154184600889C
:100A6000B0F5806F24D1002240F22551114800F0EA
:100A700079F81DE040F224410E4800F049F8B8B181
:100A80000C4800F001F940F224410A4800F018F83F
:100A9000002240F22551074800F064F8002240F29D
:100AA0002441044800F05EF800F0A2FF00F0AEFD23
:100AB00010BD000000440040220000208A020020F7
:100AC00010B50022002340F66A14A14200D100BFF5
:100AD0000A1201249440A3B2DC43048010BD21B16A
:100AE000828942F40052828104E082894DF6FF73CC
:100AF0001A408281704702460020B1F5007F00D184
:100B000000BF13880B400BB1012000E000207047AC
:100B100070B50246002400230025002040F66A1626
:100B2000B14200D100BFC1F3421501F01F030126FD
:100B300006FA03F3012D02D19689334006E0022D17
:100B400002D1168A334001E0968A33400C12012606
:100B500006FA04F41688344013B10CB1012000E009
:100B6000002070BDF0B503460024002600250020BB
:100B700040F66A17B94200D100BF1846C1F34214CB
:100B800001F01F06012707FA06F5012C01D10C30F0
:100B900004E0022C01D1103000E014301AB10768D3
:100BA0002F43076002E00768AF430760F0BD000015
:100BB0002DE9F04786B005460E460024A24600BF48
:100BC000A1460027B08900B100BF2F462C8A4CF601
:100BD000FF700440F08804432C82AC894EF6F31079
:100BE0000440B08831890843718908430443AC81CB
:100BF000AC8A4FF6FF400440B0890443AC8201A8A0
:100C0000FFF758FC1F48874202D1DDF810A001E031
:100C1000DDF80CA0A88900F4004040B10AEBCA003E
:100C200000EB0A1031684900B0FBF1F807E00AEB6D
:100C3000CA0000EB0A1031688900B0FBF1F86420AB
:100C4000B8FBF0F004012009642101FB1089A88998
:100C500000F4004040B1322000EBC900B0FBF1F0DD
:100C600000F00700044308E0322000EB0910642183
:100C7000B0FBF1F000F00F0004432C8106B0BDE89A
:100C8000F08700000038014001468888C0F3080062
:100C90007047C1F308028280704700BFFEE7000082
:100CA0000FB4054B10B503A9044A029800F018F8D8
:100CB00010BC5DF814FB0000F91100083C00002096
:100CC00002E008C8121F08C1002AFAD17047704715
:100CD000002001E001C1121F002AFBD17047000073
:100CE0002DE9FF4F8DB00F460546002606E025286A
:100CF0000BD0DDE90F1290476D1C761C2878002878
:100D0000F5D111B03046BDE8F08F0024A246A146CF
:100D10000122E94900E0044315F8013F203B02FAB3
:100D200003F00842F7D128782A2810D06FF02F025C
:100D30002878A0F13001092914D80AEB8A0102EBC6
:100D4000410144F0020400EB010A6D1CF0E701CF01
:100D50005FEA000A03D544F40054CAF1000A44F0E3
:100D600002046D1C28782E2817D115F8010F44F0C5
:100D700004042A280ED06FF02F022878A0F1300149
:100D800009290AD809EB890102EB410100EB0109AD
:100D90006D1CF2E757F8049B6D1C28786C280FD067
:100DA00006DC4C2817D068280DD06A2814D104E03E
:100DB000742810D07A280FD10DE044F400140AE012
:100DC00044F4801401E044F440146978814202D173
:100DD00004F580146D1C6D1C28786E281ED00CDC68
:100DE000632830D004DC00288BD0582811D19FE034
:100DF000642867D069280CD164E073282DD004DC06
:100E00006F2872D0702804D194E075286ED07828AD
:100E10006DD0DDE90F129047761C4BE1C4F3025010
:100E2000022806D0032809D0042801CF09D0066083
:100E300040E101CFF117C0E900613BE101CF06803D
:100E400038E1067036E117F8040B8DF80000002039
:100E50008DF80100EB46012003E057F804BB4FF08A
:100E6000FF3061074FF0000102D40DE008F10101ED
:100E7000884649450FDA8045F8DB1BF80810002941
:100E8000F4D108E008F1010188468142FADB1BF841
:100E900008100029F6D1DDE90F23AAEB08008146EE
:100EA000214600F031F9304400EB080604E0DDE9AA
:100EB0000F121BF8010B9047B8F10108F7D2214639
:100EC0004846F2E00A21C4F302524FF0000B0891A9
:100ED000022A04D001CFC117032A09D00AE0FF1D5E
:100EE00027F00707F7E8020108E02CE01EE01FE00A
:100EF00000B2C117042A01D140B2C117021E71F11C
:100F0000000206DA0023D0EB030063EB01012D227F
:100F100002E0220504D52B228DF82420012203E0D3
:100F2000E20701D02022F7E7904653E00A210BE0C8
:100F3000102109E010214FF0000B44F004044FF0A1
:100F40000809089103E008214FF0000B0891C4F351
:100F50000252022A04D001CF0021032A06D006E063
:100F6000FF1D27F00707F7E8020103E080B2042A1B
:100F700000D1C0B24FF0000822072BD52A78702A82
:100F800007D0DDF820C08CF0100C5CEA0B0C05D00B
:100F90000EE040228DF82420012208E050EA0103EF
:100FA00006D030238DF824308DF82520022290467B
:100FB000089B83F0080353EA0B030BD150EA0102AC
:100FC00001D1620706D530228DF824204FF00108A8
:100FD000A9F101092A78582A04D038A20B9208AA4C
:100FE0000A920BE03AA2F9E75B46089AFFF7E2F8AB
:100FF0000B9B9B5C0A9A521E0A92137050EA0102E4
:10100000F2D10A98ADEB000000F1200B600702D589
:1010100024F4803401E04FF00109D94502DDA9EB49
:101020000B0000E0002000EB0B0141440890AAEB0C
:10103000010AE00306D4DDE90F232146504600F003
:1010400063F806444FF0000908E009A911F8090007
:10105000DDE90F12904709F10109761CC145F4DB67
:10106000E0030CD5DDE90F232146504600F04CF893
:10107000064404E0DDE90F1230209047761C089901
:10108000481E08900029F5DC08E00A980A990078C3
:10109000491C0A91DDE90F129047761CBBF1000153
:1010A000ABF1010BF1DC21465046DDE90F2300F0E6
:1010B00019F806446D1C21E609280100303132334D
:1010C0003435363738396162636465660000000084
:1010D000303132333435363738394142434445466E
:1010E000000000002DE9F041044600251E46174689
:1010F000880404D405E039462020B0476D1C641EE6
:10110000F9D52846BDE8F0812DE9F04104460025D7
:101110001E469046C80301D5302700E020278804EA
:1011200004D505E041463846B0476D1C641EF9D52C
:101130002846BDE8F081000030B5024600200023BB
:101140000BE003124FF6FF7404EA002014785C40B1
:10115000044D35F814406040521C0C1EA1F10101F1
:10116000EFD130BDA01A000838B505460C46012164
:101170000520FFF77FF901218803FFF77BF918208D
:101180008DF803004FF40070ADF8000003208DF8D7
:10119000020069460C48FFF773F804208DF803003D
:1011A0000002ADF8000069460748FFF769F82146DC
:1011B0000648FFF7FDFC01210448FFF790FC4021A1
:1011C0000248FFF798FC38BD000801400038014094
:1011D00010B54FF4E1300649086000208880C880CF
:1011E000088188810C2048810248FFF7BDFF10BDAF
:1011F000400200200038014070B504460D46E1B2BF
:101200000548FFF746FD00BF40210348FFF773FC88
:101210000028F9D0204670BD003801401CB50020E0
:10122000019000270090804600264FF40075FFF7DC
:10123000B7F8454800684FF47A72B0FBF2F1B1F1AB
:10124000807F00D31FE021F07F40401E4FF0E0225E
:10125000506150170F22002809DA13074FEA136C68
:101260003A4B00F00F04241F03F804C003E01307F7
:101270001C0E374B1C5400BF00204FF0E022906141
:101280000720106100BFFFF7A3FF32A0FFF708FDA2
:1012900000F062FA022101A800F046F99DF804006E
:1012A000012803D132A0FFF7FBFC04E035A0FFF7D3
:1012B000F7FC00BFFEE705236A460121184600F04F
:1012C000B7F8074637B90098820A014632A0FFF7FF
:1012D000E7FC04E038A0FFF7E3FC00BFFEE700BF37
:1012E00070190099884202D90098851B01E04FF4DB
:1012F00000750323374A2946404600F047FA07465F
:101300001FB135A0FFF7CCFC1AE0012411E0601EEC
:10131000304A115C3AA0FFF7C3FCE11704EBD1613E
:101320004911A4EB411111B937A0FFF7B9FC601CBA
:1013300084B2AC42EBD9A8442E4400988642CFD365
:1013400000BF00BFFEE700000000002018ED00E035
:1013500000E400E044656275672055415254206FF7
:10136000757470757420737563636573730D0A000B
:101370005358483438352048323030204F4E0D0A0B
:1013800000000000535848343835204832303020AF
:101390004F46460D0A00000050696374757265205F
:1013A00073697A65206973203A20256420422C20D5
:1013B0002564204B420D0A005358483438352048E4
:1013C0003230302043617074757265206572726FBF
:1013D000720D0A0040000020535848343835204828
:1013E00032303020476574207069637475726520EF
:1013F00064617461206572726F720D0A00000000F2
:1014000030582530325820000D0A000010B5002059
:101410000549088020210548FEF7C1FE4FF4806190
:101420000248FEF7BCFE10BD220000206A02002028
:101430002DE9F04704460D4616461F464FF00009B9
:10144000C846402015490870FFF7E0FF144B2A46B4
:1014500021461448007800F029F881464946104892
:1014600000F02CFA002000F023FA384600F07EFA53
:1014700000F018FA804602E000F014FA8046B8F155
:10148000000FF9D0B8F1010F05D1074800683060AE
:101490000020BDE8F0870120FBE7000015000020D8
:1014A0006A0200201400002018000020F0B5044655
:1014B000002090270646401C1A4DAF55EB270646E4
:1014C000401CAF550646401CAC5540270646401C04
:1014D000AF5504270646401CAF5500270646401C62
:1014E000AF550646401CAF5502270546461CF0B2D4
:1014F0000C4E77550546461CF0B20A4E715505460E
:10150000461CF0B2074E7255C1270546461CF0B284
:10151000044E7755C2270546461CF0B2014E77555A
:10152000F0BD00006A0200202DE9F04104460D469E
:1015300000270026012013490870FFF767FF1249B2
:101540001248007800F0DEF9074639460E4800F0F0
:10155000B5F9002000F0ACF9284600F007FA00F0D9
:10156000A1F9064602E000F09DF90646002EFAD0E9
:10157000012E05D10648007820700020BDE8F081DA
:101580000120FBE7150000206A0200201400002063
:1015900017000020084900220A604A6041788278DA
:1015A00001EB0221C27801EB0241034A1160417A4A
:1015B0001171817A517170471800002070B505468D
:1015C0000C46012D04D0402D06D0482D09D107E04E
:1015D000204600F009F805E02046FFF7DBFF01E0B8
:1015E00000E000BF00BF70BD017849B94178AA2969
:1015F00006D18178552903D10121034A117002E0F7
:101600000021014A11707047170000202DE9F041B8
:1016100000240025002695E04B48007809286FD269
:10162000DFE800F005152435525962666F0047481F
:101630000078902807D0002043490870022000F06D
:1016400037F9BDE8F08101203F49087079E03F4853
:101650004078EB2806D000203B490870022000F0BB
:1016600027F9EEE70220384908706AE037488078A9
:1016700037490978884206D0002033490870022093
:1016800000F016F9DDE703202F49087059E02F48D4
:10169000C07830490978884212D02C48C07849284F
:1016A00007D12C480078482803D104202649087027
:1016B00009E0002024490870022000F0F9F8C0E792
:1016C0000420214908703CE00024204804790520CA
:1016D0001D49087035E01D49487944EA00218CB263
:1016E0000621194A11702CE007201749087028E0DC
:1016F0000025A01D15490D5C08201349087020E045
:101700001EE0E01D11490F5C45EA072085B2211D4E
:101710000E48801CFFF710FD0646B54203D003209B
:1017200000F0C6F808E00949891D0A480078FFF76B
:1017300045FF012000F0BCF800200349087080E755
:1017400000BF00BF68E70000160000208A020020EA
:10175000140000201500002010B54FF4E1300949B5
:10176000086000208880C880088188810C2048811A
:10177000054800F045F900F083F900F023F900F086
:1017800027F910BD50020020004400402DE9F04729
:1017900004460D4616461F464FF00009C84648202D
:1017A00015490870FFF732FE2A4621461348007893
:1017B00000F02AF881464946114800F07FF80020E1
:1017C00000F076F8384600F0D1F800F06BF880466B
:1017D00002E000F067F88046B8F1000FF9D0B8F1E8
:1017E000010F07D12A4607493046FEF7BFFC00200B
:1017F000BDE8F0870120FBE7150000201400002061
:101800006A0200209002002070B503460020902656
:101810000546401C224C6655EB260546401C665585
:101820000546401C635548260546401C665506265D
:101830000546401C665500260546401C6655054673
:10184000401C6155C1F307260446451CE8B2144DFF
:101850002E55C1F307460446451CE8B2104D2E55DF
:101860000C0E0546461CF0B20D4E74550446451C40
:10187000E8B235462A55C2F307260446451CE8B2AD
:10188000074D2E55C1260446451CE8B2044D2E5581
:10189000C2260446451CE8B2014D2E5570BD00001D
:1018A0006A020020014800787047000020000020F4
:1018B00001490870704700002000002070B50546FF
:1018C0000E46012240F225510D48FFF74BF9012247
:1018D00040F224410A48FFF745F900240CE0295D55
:1018E0000748FFF7D6F900BF40210548FFF703F985
:1018F0000028F9D0601CC4B2B442F0D370BD00001F
:101900000044004030B50246002090250446401CAB
:10191000154B1D55EB250446401C1D550446401C27
:101920001A5501250446401C1D5502250446401C3D
:101930001D5500250446401C1D5555250446401CD8
:101940001D55AA250346441CE0B2074CE554C125A9
:101950000346441CE0B2044CE554C2250346441C33
:10196000E0B2014CE55430BD6A02002010B50446D7
:101970001248FEF7FBFE1248002101604160018120
:1019800040F2712060434FF6FF7101EA00100C49EC
:10199000888041F61F4008800848FEF7F5FF0121C6
:1019A0000648FEF7D1FE012211460448FEF7E3FF88
:1019B00001210248FEF7CEFE10BD000000100040DD
:1019C0006002002010B501211020FEF733FD10BD8C
:1019D00008B50020009036208DF8000001208DF819
:1019E00002008DF803006846FEF7E0FC08BD000029
:1019F00010B500210148FEF7ADFE10BD00100040FB
:101A000038B505460C4601210520FEF733FD0121BE
:101A10004804FEF70FFD18208DF803000420ADF8F0
:101A2000000003208DF8020069461348FEF728FCE9
:101A300004208DF803000820ADF8000069460E4828
:101A4000FEF71EFC21460D48FFF7B2F8012240F2D6
:101A500025510A48FFF786F8012240F22441074841
:101A6000FFF780F801210548FFF739F840210348C6
:101A7000FFF741F838BD0000000801400044004075
:101A800008B50020009026208DF8000000208DF879
:101A9000020001208DF803006846FEF787FC08BDB0
:101AA00000002110422063308440A550C660E770DA
:101AB000088129914AA16BB18CC1ADD1CEE1EFF182
:101AC0003112100273325222B5529442F772D6622A
:101AD000399318837BB35AA3BDD39CC3FFF3DEE3D2
:101AE0006224433420040114E664C774A44485547A
:101AF0006AA54BB528850995EEE5CFF5ACC58DD522
:101B00005336722611163006D776F6669556B446C9
:101B10005BB77AA719973887DFF7FEE79DD7BCC771
:101B2000C448E5588668A778400861180228233819
:101B3000CCC9EDD98EE9AFF9488969990AA92BB9C1
:101B4000F55AD44AB77A966A711A500A333A122A69
:101B5000FDDBDCCBBFFB9EEB799B588B3BBB1AAB11
:101B6000A66C877CE44CC55C222C033C600C411CB9
:101B7000AEED8FFDECCDCDDD2AAD0BBD688D499D61
:101B8000977EB66ED55EF44E133E322E511E700E09
:101B90009FFFBEEFDDDFFCCF1BBF3AAF599F788FB1
:101BA0008891A981CAB1EBA10CD12DC14EF16FE191
:101BB0008010A100C230E3200450254046706760C9
:101BC000B9839893FBA3DAB33DC31CD37FE35EF3E1
:101BD000B1029012F322D232354214527762567219
:101BE000EAB5CBA5A89589856EF54FE52CD50DC531
:101BF000E234C324A0148104667447642454054469
:101C0000DBA7FAB79987B8975FE77EF71DC73CD780
:101C1000D326F2369106B0165766767615463456B8
:101C20004CD96DC90EF92FE9C899E9898AB9ABA9D0
:101C30004458654806782768C018E1088238A32808
:101C40007DCB5CDB3FEB1EFBF98BD89BBBAB9ABB20
:101C5000754A545A376A167AF10AD01AB32A923A58
:101C60002EFD0FED6CDD4DCDAABD8BADE89DC98D70
:101C7000267C076C645C454CA23C832CE01CC10CA8
:101C80001FEF3EFF5DCF7CDF9BAFBABFD98FF89FC0
:101C9000176E367E554E745E932EB23ED10EF01EF8
:101CA000C01C00080000002040000000C00C00081C
:101CB000001D000840000020500A0000D00C000861
:101CC00000A24A040000000000000000010203041A
:101CD00006070809010100000000000000000000E4
:101CE00001000004000000000000000001020304E5
:101CF00001020304060708090204060800000000A8
:0400000508000131BD
:00000001FF
